:020000040000FA
:100000000A128A11FC2F00308A000408840A820731
:100010000034483465346C346C346F3420345734D5
:100020004F3452344C3444340034663472346F34B8
:0C0030006D342034503449344334003423
:100C8C000A128A1163260A128A118316031311148D
:100C9C0008000A128A1163260A128A11831603139A
:100CAC0011150800F0000A128A1163260A128A1123
:100CBC0070088312031393000800642E8316031329
:100CCC001419692E6A2E642E11081F39031D6F2EFC
:100CDC00702E642E712E080002300A128A110D2714
:100CEC000A128A1128300A128A110D270A128A1147
:100CFC000C300A128A110D270A128A1180300A123E
:100D0C008A110D270A128A110800F7009E2E770807
:100D1C0084000A128A1103200A128A110A128A11FB
:100D2C004E270A128A110130F6007608F7079E2E1C
:100D3C00770884000A128A1103200A128A11003AD9
:100D4C00031DA92EAA2E8D2EAB2E08000030831267
:100D5C000313A3000130A2008630A100A030A00034
:100D6C000A128A11D6260A128A110A128A117226BE
:100D7C000A128A1101300A128A118B260A128A1160
:100D8C00C0300A128A110D270A128A110D300A126C
:100D9C008A118B260A128A11D22E0A128A11002865
:100DAC00831203132008A4002108A5002208A60022
:100DBC002308A70002300310A40DA50DA60DA70D46
:100DCC00FF3E031DE12E2708F3002608F20025083C
:100DDC00F1002408F0000030F7009830F60096304F
:100DEC00F5008030F4000A128A118F270A128A113A
:100DFC007008FF3E831603139300283083120313ED
:100E0C009400831603139401871507160800F3004A
:100E1C007308F10003300310F10DFF3E031D112F79
:100E2C000310710DF039F2007208F4007308F039F8
:100E3C00F1007108F5000A128A1146260A128A116D
:100E4C004E300A128A1158260A128A1175080C386B
:100E5C000A128A1158260A128A11750808380A12C1
:100E6C008A1158260A128A1174080C380A128A112F
:100E7C0058260A128A11740808380A128A11582640
:100E8C000A128A110A128A114F260A128A110800B4
:100E9C00F3007308F10003300310F10DFF3E031D46
:100EAC00522F0310710DF039F2007208F400730820
:100EBC00F039F1007108F5000A128A1146260A125F
:100ECC008A114E300A128A1158260A128A11750894
:100EDC000D380A128A1158260A128A117508093817
:100EEC000A128A1158260A128A1174080D380A122D
:100EFC008A1158260A128A11740809380A128A11A2
:100F0C0058260A128A110A128A114F260A128A11BD
:100F1C0008000030FC000030FB000030FA0000300C
:100F2C00F900730872047104700403199E2F9F2F2B
:100F3C00F22FFD01FD0AB02F0130F8000310F00D67
:100F4C00F10DF20DF30DF80BA42F0130F800780819
:100F5C00FD07B02FF31FB32FB42FA22FB62FB62F30
:100F6C000130F8000310F90DFA0DFB0DFC0DF80B18
:100F7C00B82F73087702031DCD2F72087602031D5C
:100F8C00CD2F71087502031DCD2F70087402031C40
:100F9C00D02FD12FE12F7008F4027108031C710FB0
:100FAC00F5027208031C720FF6027308031C730F10
:100FBC00F7027914E12F01300310F30CF20CF10C51
:100FCC00F00CFF3E031DE22F0130FD02031DEF2F3D
:100FDC00F02FB62FF22FF22F7C08F3007B08F200D3
:100FEC007A08F1007908F000FB2F080083010A123F
:040FFC008A11AC2E7C
:02400E003A3F37
:00000001FF
