:020000040000FA
:060000000A128A110C280F
:10000800FE00030EF0000A08F1000A128A150F2BF1
:100018000A128A110F2883120313E901EA01EB017E
:10002800EC01ED0183010A128A110F2F83120313C9
:1000380029088039AE002E08B3002908AE002E0723
:10004800AF002F08B900A81B39143908031939283B
:10005800390A031D37280030A9000030A8000030F5
:10006800A7000030A600A81741280030A9000030DA
:10007800A8000030A7000030A6002D088039AE0087
:100088002E08B3062D08AE002E07AF002F08B800C3
:10009800AC1B3814380803195E28380A031D5C287D
:1000A8000030AD000030AC000030AB000030AA00DA
:1000B800AC1766280030AD000030AC000030AB0053
:1000C8000030AA003808031D3908031D74280030C1
:1000D800A9000030A8000030A7000030A6000800E2
:1000E8002608AE002E08F2002C080A128A15A5234D
:1000F8000A128A11730883120313BF007208BE0024
:100108003E08AE00AF01B001B1013108B7003008B8
:10011800B6002F08B5002E08B4003F08AE00AF01A6
:10012800B001B1013108BD003008BC002F08BB0088
:100138002E08BA002708AE002E08F2002B080A1273
:100148008A15A5230A128A11730883120313BF00A4
:100158007208BE003E08AE00AF01B001B1012E0822
:10016800B4072F0803110318013E031DB507300813
:1001780003110318013E031DB607310803110318C4
:10018800013E031DB7073F08AE00AF01B001B10142
:100198002E08BA072F0803110318013E031DBB07D9
:1001A800300803110318013E031DBC073108031171
:1001B8000318013E031DBD072808AE002E08F200F3
:1001C8002A080A128A15A5230A128A1173088312AB
:1001D8000313BF007208BE003E08AE00AF01B001B5
:1001E800B1012E08B4072F0803110318013E031D9F
:1001F800B507300803110318013E031DB60731087F
:1002080003110318013E031DB7073F08AE00AF01F5
:10021800B001B1012E08BA072F0803110318013ED7
:10022800031DBB07300803110318013E031DBC075B
:10023800310803110318013E031DBD070830AE0045
:100248000310B40DB50DB60DB70DAE0B2429270854
:10025800AE002E08F2002A080A128A15A5230A12EF
:100268008A11730883120313BF007208BE003E0888
:10027800AE003F08AF00B001B1012E08B4072F0847
:1002880003110318013E031DB507300803110318B5
:10029800013E031DB607310803110318013E031D73
:1002A800B7072608AE002E08F2002B080A128A1596
:1002B800A5230A128A11730883120313BF00720858
:1002C800BE003E08AE003F08AF00B001B1012E08E5
:1002D800B4072F0803110318013E031DB5073008A2
:1002E80003110318013E031DB60731080311031853
:1002F800013E031DB7070830AE000310B40DB50D5D
:10030800B60DB70DAE0B81292608AE002E08F200F7
:100318002A080A128A15A5230A128A117308831259
:100328000313BF007208BE003E08AE003F08AF00CE
:10033800B001B1012E08B4072F0803110318013EBC
:10034800031DB507300803110318013E031DB60746
:10035800310803110318013E031DB7072708AE0033
:100368002E08F2002C080A128A15A5230A128A11EF
:10037800730883120313BF007208BE003E08AE0064
:100388003F08AF00B001B1012E08BA072F080311CA
:100398000318013E031DBB07300803110318013E73
:1003A800031DBC07310803110318013E031DBD07D7
:1003B8002808AE002E08F2002B080A128A15A52379
:1003C8000A128A11730883120313BF007208BE0051
:1003D8003E08AE003F08AF00B001B1012E08BA07D1
:1003E8002F0803110318013E031DBB073008031132
:1003F8000318013E031DBC07310803110318013E11
:10040800031DBD072808AE002E08F2002C080A12AA
:100418008A15A5230A128A11730883120313BF00D1
:100428007208BE003E08AE003F08AF00B001B1013F
:1004380008300310AE0DAF0DB00DB10DFF3E031D1A
:100448001D2A2E08BA072F0803110318013E031DA1
:10045800BB07300803110318013E031DBC07310810
:1004680003110318013E031DBD073408AE0035080B
:10047800AF003608B0003708B10018300310B10CCF
:10048800B00CAF0CAE0CFF3E031D422A2E08BA0773
:100498002F0803110318013E031DBB073008031181
:1004A8000318013E031DBC07310803110318013E60
:1004B800031DBD070830AE000310B40DB50DB60D11
:1004C800B70DAE0B602A39083807AE00AF01AF0D83
:1004D8002E08823EBE002F080318013EFF3EBF00D3
:1004E800BC1B912A0130AE000310BA0DBB0DBC0D28
:1004F800BD0DAE0B782AB71B3A140130AE000310BD
:10050800B40DB50DB60DB70DAE0B832AFF30BE077F
:100518000318BF0AFF30BF07742AB801B71FAA2AF9
:10052800FF303405AE00FF303505AF00FF3036052B
:10053800B0007F303705B100310830042F042E0495
:1005480003193A18A82AAA2AB801B80A38080319B8
:10055800DC2A0130BA07003003180130BB0700302D
:1005680003180130BC07003003180130BD073D1CDB
:10057800DC2A3A08AE003B08AF003C08B0003D0852
:10058800B1000130B200310DB10CB00CAF0CAE0CA3
:10059800B20BC72A3108BD003008BC002F08BB00C9
:1005A8002E08BA000130BE070318BF0A0030BF0783
:1005B8003F08803AFF0080307F02031DE52AFF30A4
:1005C8003E02031CF22A7F3083120313BD008030E1
:1005D800BC000030BB000030BA00222B831203138A
:1005E8003F08803AFF0080307F02031DFD2A01305A
:1005F8003E0203180B2B003083120313BD0000309A
:10060800BC000030BB000030BA00B301222B8312BB
:1006180003133E08AE002E08B900FF30BA05FF30BC
:10062800BB057F30BC050030BD053918BC1739083B
:10063800AE0003102E0CAF002F08BD003308AE002B
:100648002E08BD043D08A9003C08A8003B08A700E7
:100658003A08A60008008312031343088039C8002B
:100668004808D0004308C8004807C9004908D20014
:10067800C21B5214520803194F2B520A031D4C2B4C
:100688000030C3000030C2000030C1000030C0009C
:10069800C217C301572B0030C3000030C20000301E
:1006A800C1000030C00047088039C8004808D100A0
:1006B80051085006031D50174708C8004807C900CD
:1006C8004908D100C61B511451080319792B510A46
:1006D800031D762B0030C7000030C6000030C5006F
:1006E8000030C400C617C701812B0030C700003096
:1006F800C6000030C5000030C4005208510203187B
:10070800C72B501F8B2B8030C8004808D0065208D2
:10071800C8004808D3005108C8004808D200530848
:10072800C8004808D1004008C8004808D300440859
:10073800C8004808C0005308C8004808C400410859
:10074800C8004808D3004508C8004808C100530835
:10075800C8004808C5004208C8004808D300460831
:10076800C8004808C2005308C8004808C600430823
:10077800C8004808D3004708C8004808C300530801
:10078800C8004808C700D3015108C800C901490872
:10079800CB0052084802CA00031CCB034B08803A1E
:1007A800FF0080307F02031DDB2B1A304A02031C36
:1007B800142C831203134308420441044004031910
:1007C800E72B0130E82B0030C8004808D300003080
:1007D800C3000030C2000030C1000030C000510822
:1007E800C8004808D2001A2C531C032C5308C80010
:1007F8000310480C0138C9004908D300052C031020
:10080800D30C4018D3170130C800430DC30CC20CD9
:10081800C10CC00CC80B092C0130C8004808D2070D
:100828008312031351085202031CF82B501B5B2C34
:100838005208031D282C0030C3000030C2000030CD
:10084800C1000030C00008004408C0074508031173
:100858000318013E031DC107460803110318013E92
:10086800031DC207470803110318013E031DC307F0
:10087800431CFD2C531C492C5308C8000310480C7A
:100888000138C9004908D3004B2C0310D30C401879
:10089800D3170130C800430DC30CC20CC10CC00CE7
:1008A800C80B4F2C0130C8004808D207FD2C43085C
:1008B800803AFF004708803A7F02031D6D2C4608E6
:1008C8004202031D6D2C45084102031D6D2C44088E
:1008D80040020318C52CFF30C800FF30C900FF30A4
:1008E800CA00FF30CB004408CC004508CD004608BC
:1008F800CE004708CF004008CC024108031C410F36
:10090800862C872CCD024208031C420F8C2C8D2C80
:10091800CE024308031C430F922C932CCF024C08A1
:10092800C8074D0803184D0F9A2C9B2CC9074E0871
:1009380003184E0FA02CA12CCA074F0803184F0A02
:10094800CB074B08C3004A08C2004908C100480841
:10095800C0008030C8004808D006D309D30A53081D
:10096800031DD32C0130C007003003180130C10724
:10097800003003180130C207003003180130C307E4
:10098800D32C4408C0024508031C450FC102460881
:10099800031C460FC2024708031C470FC302430843
:1009A800420441044004031DFB2C5308031DFB2C87
:1009B8000030C3000030C2000030C1000030C00069
:1009C80008000130C8000310C00DC10DC20DC30DD1
:1009D800C80BE72CD31B4014531CF42C0314F52C20
:1009E8000310D30D52080319FB2C0130D202C21F89
:1009F800E52CD101D31F082D53087F39031940185E
:100A0800062D082DD101D10A510803193B2D0130BB
:100A1800C007003003180130C10700300318013047
:100A2800C207003003180130C307431C3B2D4008A0
:100A3800C8004108C9004208CA004308CB00013079
:100A4800CC004B0DCB0CCA0CC90CC80CCC0B252DFB
:100A58004B08C3004A08C2004908C1004808C00042
:100A6800520A03193B2D0130C8004808D207520A20
:100A7800031D5208031D4B2D0030C3000030C20077
:100A88000030C1000030C00052080319D001521CC8
:100A98004F2DC217532D7F30C8004808C205520891
:100AA800C8000310480CC9004908C300D01F08003B
:100AB800C317080083120313E201E301E910691068
:100AC800691181010B1169187C2D0B1D732D810192
:100AD8000B110130E2070318E30A0030E307003086
:100AE8006302253003196202031C672DE91408000C
:100AF800691081010B11E201E3016918952D0B1DA5
:100B08008D2D81010B110130E2070318E30A003033
:100B1800E3070030630225300319620203187A2DB7
:100B2800812D0108D4005408EA003830A900DE30CD
:100B3800A8004C30A7005130A6006A08D400D5019F
:100B4800D601D7015708F5005608F4005508F300F8
:100B58005408F20000300A128A15B2250A128A11C6
:100B6800750883120313AD007408AC007308AB005A
:100B78007208AA000A128A111A200A128A1183120C
:100B880003132908E1002808E0002708DF002608E9
:100B9800DE006208F2006308F300F401F50100309A
:100BA8000A128A15B2250A128A11750883120313CC
:100BB800AD007408AC007308AB007208AA003C30A2
:100BC800A900DE30A8004C30A7005130A6000A1258
:100BD8008A111A200A128A11831203132908C300E2
:100BE8002808C2002708C1002608C0006108C700FD
:100BF8006008C6005F08C5005E08C4000A128A11B2
:100C08002F230A128A11831203134308E1004208B2
:100C1800E0004108DF004008DE004130A900C03094
:100C2800A8000030A7000030A6006108AD006008E9
:100C3800AC005F08AB005E08AA000A128A111A20ED
:100C48000A128A11831203132908E1002808E00018
:100C58002708DF002608DE004230F9007030F8006F
:100C68000030F7000030F6006108F5006008F40075
:100C78005F08F3005E08F2000A128A1557260A1266
:100C88008A11750883120313C3007408C20073081D
:100C9800C1007208C0000A128A1545250A128A1175
:100CA800831203134108E5004008E4006408F200D9
:100CB8006508F300F401F50100300A128A15B2251F
:100CC8000A128A11750883120313AD007408AC0068
:100CD8007308AB007208AA003F30A9008330A8004F
:100CE800D730A7000A30A6000A128A111A200A1261
:100CF8008A11831203132908C3002808C200270891
:100D0800C1002608C0000A128A1545250A128A1150
:100D1800831203134108E5004008E4006430F20040
:100D28000030F3006508F5006408F4000A128A151B
:100D38002B240A128A11730883120313DD00720828
:100D4800DC000A30F2000030F3006508F5006408A2
:100D5800F4000A128A152B240A128A1172088312C7
:100D68000313D4007308D5005D08F3005C08F20093
:100D7800F630F400FF30F5000A128A1561230A12D2
:100D88008A117208831203135407DA0073080318D0
:100D9800730A5507DB005D08F3005C08F2009C301D
:100DA800F400FF30F5000A128A1561230A128A112D
:100DB800720883120313D4007308D5005B08F3008C
:100DC8005A08F200F630F400FF30F5000A128A15CE
:100DD80061237208831203135407D600730803189B
:100DE800730A5507D70064085607D8006508031822
:100DF800650A5707D9005C08303ED4005408EB0058
:100E08005A08303ED4005408EC005808303ED4004C
:100E18005408ED0008003F3083120313E60066080B
:100E2800F2006B300A128A1543230A128A118316BC
:100E380003138701FF3086000130831603178800EB
:100E48008901831203130711871283160313811272
:100E580081110108073881008B170B160117FF3025
:100E68009200063083120313920095010C3097000C
:100E78000030A8000130A7008630A600A030A500E9
:100E88000A128A15F6230A128A110A128A152C23C5
:100E98000A128A110A128A151A230A128A110A12C8
:100EA8008A11BA270A128A1180300A128A15672411
:100EB8000A128A112330F8008030F9000A128A15C4
:100EC80082230A128A11073083120313E80058306C
:100ED800E7005930E600E60B6F2FE70B6F2FE80BA2
:100EE8006F2F8D2F80300A128A1567240A128A11F3
:100EF8001230852F80300A128A1567240A128A1147
:100F08000130F8008030F9000A128A1582230A128B
:100F18008A110A128A15C8230A128A118312031326
:100F280095000A128A115E250A128A118312031388
:100F3800E918762F69197E2F80300A128A156724DE
:100F48000A128A113930F8008030F9000A128A151D
:100F580082230A128A116B30F8000030F9000A1255
:100F68008A1582230A128A113030852F80300A129E
:100F78008A1567240A128A11F801F90120300A1229
:100F88008A15A6240A128A110130F8070318F90AEB
:100F98000030F9077908803AFF0080307F02031D8E
:100FA800D72F3C307802031CC22FC0300A128A1592
:100FB80067240A128A11FA01FB0120300A128A15E5
:100FC800A6240A128A110130FA070318FB0A003016
:100FD800FB077B08803AFF0080307F02031DF62F55
:100FE8003C307A0203180800E12F0A128A15FD2204
:100FF8008316031311150800FF1B0A2883137F1893
:1010080083170008840A0319FF0A080008308A00B9
:101018000408840A82070034483469346734683421
:10102800203452346F3474346134743469346F3416
:101038006E34203444342E340034523450344D3419
:101048002034413442344134493458344F34203404
:1010580064346534203478347834003449346E3458
:1010680069346334693461346E3464346F342E34D3
:101078002E342E34003420342034203420342034CC
:101088002034203420340034523450344D343A342F
:0C1098002034003478347834783400348C
:1015EC000A128A15FD2283160313111408008316A0
:1015FC0003131419FD2A11081F3903190800FD2AB9
:10160C00F2000A128A15FD2272088312031393004A
:10161C0008008312031369148B1071088A00700E72
:10162C008300FE0E7E0E09008030831603139F008C
:10163C0083120313850183160313051483160317F2
:10164C000814C130831203139F00080002300A12E1
:10165C008A1567240A128A1528300A128A156724FB
:10166C000A128A150C300A128A1567240A128A1576
:10167C0080300A128A1567240800F4007408F300FD
:10168C007308F500720884000A128A150A200A12DF
:10169C008A15F30075088400730883138000000812
:1016AC00031908000130F3007308F5070130F3004B
:1016BC007308F207482BF601F701721C6B2B7408A8
:1016CC00F6070318F70A7508F70701300310F40D35
:1016DC00F50DFF3E031D6C2B01300310F30CF20CC7
:1016EC00FF3E031D732B72087304031D632B7708D5
:1016FC00F3007608F2000800790883120313FF0048
:10170C00780884000A128A1500200A128A15003AF9
:10171C00031908007908FF00780884000A128A155A
:10172C0000200A128A150A128A15A6240A128A1592
:10173C000130F8070318F90A0030F907822BFA0078
:10174C00F601F7017208F400F5017408F800750849
:10175C00F9007A1CB72B7808F6070318F70A7908F2
:10176C00F70701300310F80DF90DFF3E031DB82BE0
:10177C000310FA0C7A08031DAF2B7708F3007608D8
:10178C00F20008000430F3003D30F200F20BCC2BD9
:10179C00F30BCC2BD12B831203139F149F18D42B38
:1017AC00831603131E08F20002300310F20CFF3EE6
:1017BC00031DDB2B7208F3007308F4008312031370
:1017CC001E080339F20006300310F20DFF3E031D14
:1017DC00EA2B74087207F3007308F400740808000D
:1017EC00831203132508A9002608AA002708AB00BA
:1017FC002808AC0002300310A90DAA0DAB0DAC0DDE
:10180C00FF3E031D012C2C08F5002B08F4002A08C0
:10181C00F3002908F2000030F9009830F8009630F7
:10182C00F7008030F6000A128A15E5247208FF3E94
:10183C00831603139300283083120313940083162A
:10184C0003139401871507160800F701F8017208B5
:10185C0073040319622CF901F90AF31B412C0130B2
:10186C000310F20DF30DFF3E031D362C0130F60074
:10187C007608F907332C01300310F70DF80DFF3EF5
:10188C00031D422C73087502031D4E2C7208740242
:10189C00031C572C7208F4027308031CF503F502A1
:1018AC00771401300310F30CF20CFF3E031D582C7F
:1018BC000130F902031D412C7808F3007708F2007F
:1018CC000800F5007508F30003300310F30DFF3E1C
:1018DC00031D6B2C0310730DF039F4007408F60023
:1018EC007508F039F3007308F7000A128A15F6220E
:1018FC000A128A154E300A128A1506230A128A1504
:10190C0077080C380A128A1506230A128A157708EA
:10191C0008380A128A1506230A128A1576080C381A
:10192C000A128A1506230A128A15760808380A1232
:10193C008A1506230A128A150A128A11F927080039
:10194C00F5007508F30003300310F30DFF3E031D83
:10195C00AA2C0310730DF039F4007408F600750806
:10196C00F039F3007308F7000A128A15F6220A12EE
:10197C008A154E300A128A1506230A128A15770820
:10198C000D380A128A1506230A128A1577080938A7
:10199C000A128A1506230A128A1576080D380A12BD
:1019AC008A1506230A128A15760809380A128A152E
:1019BC0006230A128A150A128A11F9270800003028
:1019CC0083120313A3000030A2000030A1000030EA
:1019DC00A000750874047304720403193C2DA4014F
:1019EC00A40AF51B072D0130FA000310F20DF30DBC
:1019FC00F40DF50DFA0BFB2C0130FA007A08A40754
:101A0C00F72C0130FA000310A00DA10DA20DA30DAF
:101A1C00FA0B092D75087902031D1E2D7408780226
:101A2C00031D1E2D73087702031D1E2D72087602EE
:101A3C00031C2F2D7208F6027308031C730FF70298
:101A4C007408031C740FF8027508031C750FF90257
:101A5C00201401300310F50CF40CF30CF20CFF3EC7
:101A6C00031D302D0130A402031D072D2308F500A2
:101A7C002208F4002108F3002008F20008000310EB
:101A8C0083120313420D430DC4004408CA004A08D4
:101A9C00031D592D0030C3000030C2000030C100BE
:101AAC000030C00008004008C4004108C5004208CE
:101ABC00C6004308C7001F300310C70CC60CC50C6A
:101ACC00C40CFF3E031D622D4408C8004808C90021
:101ADC00C217FF30C005FF30C105FF30C205003012
:101AEC00C3059630CA02CA1F902D4A08803A973E09
:101AFC00031C502D01300310C30CC20CC10CC00CC4
:101B0C00FF3E031D812D0130C4004408CA07031990
:101B1C00A32D802D20304A020318502D4A0803199A
:101B2C00A32D0130C4000310C00DC10DC20DC30D97
:101B3C00C40B992D0130CA02942D490803190800D1
:101B4C00C009C109C209C309C00A0319C10A031992
:101B5C00C20A0319C30A080083120313A000200849
:101B6C00031DF51FC92D7209A2007309A300740986
:101B7C00A4007509A500A20A0319A30A0319A40A53
:101B8C000319A50AD12D7508A5007408A4007308C3
:101B9C00A3007208A2007508740473047204031D78
:101BAC00E02D0030F5000030F4000030F300003080
:101BBC00F20008009630F6007608A100FE302505EC
:101BCC000319112E0130F6007608A107013003101D
:101BDC00A50CA40CA30CA20CFF3E031DED2DE42DB3
:101BEC000130F6007608A1070130A2070030031877
:101BFC000130A307003003180130A407003003188C
:101C0C000130A50701300310A50CA40CA30CA20CE9
:101C1C00FF3E031D092EFF3025050319252EF62D39
:101C2C0002302102031C272E0130A1020130F600E4
:101C3C000310A20DA30DA40DA50DF60B1E2EA41FB3
:101C4C00162E2118312EFF30A205FF30A3057F3050
:101C5C00A405FF30A5050310A10C2108F600F7011F
:101C6C00F801F90118300310F60DF70DF80DF90D08
:101C7C00FF3E031D392E7608A2047708A3047808CA
:101C8C00A4047908A5042008031DF51F4E2EA517E2
:101C9C002508F5002408F4002308F3002208F200BC
:101CAC0008007908803983120313A0002008A900CA
:101CBC007908A0002007A1002108B000F81B3014FF
:101CCC0030080319772E300A031D742E0030F900EA
:101CDC000030F8000030F7000030F600F817F9017A
:101CEC007F2E0030F9000030F8000030F700003093
:101CFC00F60075088039A0002008A9067508A00018
:101D0C002007A1002108B100F41B3114310803197C
:101D1C009D2E310A031D9A2E0030F5000030F40080
:101D2C000030F3000030F200F417F501A52E00305E
:101D3C00F5000030F4000030F3000030F2007508BC
:101D4C00740473047204031DC42E0030F9000030B7
:101D5C00F8000030F7000030F6008030F8047F30D7
:101D6C00F9042908A0002008F9047908F50078087E
:101D7C00F4007708F3007608F20008003008031D21
:101D8C00D02E0030F5000030F4000030F3000030AD
:101D9C00F20008003008A000A1012108A3003108BE
:101DAC002002A200031CA30322087F3EAA002308E2
:101DBC000318013E003EAB007908A8007808A70084
:101DCC007708A6007608A5000030F9000030F8006E
:101DDC000030F7000030F6000030AF000030AE00ED
:101DEC000030AD000030AC00B1011A3031020318E4
:101DFC00492F310803191F2F0130A0000310A50D26
:101E0C00A60DA70DA80DA00B042F0130A0000310E8
:101E1C00F60DF70DF80DF90DA00B0D2FAF1B761469
:101E2C000130A0000310AC0DAD0DAE0DAF0DA00B2D
:101E3C00182F75082802031D2D2F74082702031D67
:101E4C002D2F73082602031D2D2F72082502031C4B
:101E5C00442F2F177208A5027308031C730F372F1A
:101E6C00382FA6027408031C740F3D2F3E2FA702B7
:101E7C007508031C750F432F442FA8020130A000D6
:101E8C002008B107FB2E2808270426042504031D6F
:101E9C002C14F81B6C2F0130A0000310F60DF70D5D
:101EAC00F80DF90DA00B532FAF1B76140130A000C9
:101EBC000310AC0DAD0DAE0DAF0DA00B5E2FFF30B2
:101ECC00AA070318AB0AFF30AB074F2FB101AF1FA6
:101EDC00852FFF302C05A000FF302D05A100FF3011
:101EEC002E05A2007F302F05A30023082204210415
:101EFC00200403197618832F852FB101B10A3108FC
:101F0C000319B72F0130F607003003180130F7071B
:101F1C00003003180130F807003003180130F907BE
:101F2C00791CB72F7608A0007708A1007808A200CA
:101F3C007908A3000130A400230DA30CA20CA10C62
:101F4C00A00CA40BA22F2308F9002208F8002108EA
:101F5C00F7002008F6000130AA070318AB0A00307E
:101F6C00AB072B08803AFF0080307F02031DC02F87
:101F7C00FF302A02031CD02FFF3083120313AA0058
:101F8C000030AB000030F9000030F8000030F700F2
:101F9C000030F600831203132B08803AFF008030C8
:101FAC007F02031DDB2F01302A020318EA2F831254
:101FBC000313AA01AB010030F9000030F800003027
:101FCC00F7000030F600A901831203132A08A000C1
:101FDC002008B000301CF42FF817F82F7F30A00029
:101FEC002008F8053008A0000310200CA1002108DF
:041FFC00F900B72E03
:04400E00F2ECFFFFD2
:00000001FF
